:100000000C942A000C9458100C9476100C94470011
:100010000C9447000C9447000C9447000C94470044
:100020000C9447000C9411100C9447000C9447005A
:100030000C9447000C9447000C9447000C94470024
:100040000C9447000C9447000C9447000C94470014
:100050000C94470011241FBECFE5D4E0DEBFCDBF16
:1000600011E0A0E6B0E0E6E4F9E202C005900D92EE
:10007000AE39B107D9F711E0AEE9B1E001C01D9288
:10008000A13AB107E1F70E94E8100C94A1140C9476
:100090000000EF92FF920F931F937B018C0120E0F1
:1000A00030E040E05FE40E94490388238CF0C801FF
:1000B000B70120E030E040E05FE40E94C1010E940F
:1000C00007049B01AC01205030404040504806C01E
:1000D000C801B7010E9407049B01AC01B901CA0124
:1000E0001F910F91FF90EF900895A0E0B0E0EBE733
:1000F000F0E00C949811DC012B01FA019C919230F4
:1001000008F439C1EB018881823008F433C194309E
:1001100069F4843009F02FC111969C91119789815F
:10012000981709F428C1A7E8B0E025C1843009F484
:1001300021C18230A9F4923009F01DC19A01AD01AC
:1001400088E0EA010990AE01E90109929E0181501F
:10015000C1F7E201898111969C918923818308C1AD
:10016000923009F407C112962D903C901397EB0141
:100170008A819B811496AD90BD90CD90DC901797AD
:10018000EC80FD800E811F819101281B390BB90184
:1001900037FF04C066277727621B730B6032710537
:1001A0000CF061C0121613066CF537014801062EDB
:1001B00004C096948794779467940A94D2F721E0C8
:1001C00030E040E050E004C0220F331F441F551FB1
:1001D0006A95D2F721503040404050402E213F21B7
:1001E00040235123211531054105510521F021E01E
:1001F00030E040E050E079018A01E628F72808293C
:1002000019293CC0232BD1F1260E371E350146019A
:10021000062E04C096948794779467940A94D2F734
:1002200021E030E040E050E004C0220F331F441FC3
:10023000551F6A95D2F721503040404050402A2146
:100240003B214C215D21211531054105510521F04E
:1002500021E030E040E050E059016A01A628B728CB
:10026000C828D9280BC0821593052CF01C01AA249C
:10027000BB24650103C0EE24FF24870111969C91E5
:10028000D20111968C91981709F445C0992339F041
:10029000A80197012A193B094C095D0906C0A6016E
:1002A00095012E193F09400B510B57FD08C01182D3
:1002B0003382228224833583468357831DC081E0A5
:1002C00081833382228288279927DC01821B930B4A
:1002D000A40BB50B84839583A683B7830DC0220F2F
:1002E000331F441F551F24833583468357838281E0
:1002F000938101979383828324813581468157813D
:10030000DA01C9010197A109B1098F5F9F4FAF4F72
:10031000BF4328F30BC0918333822282EA0CFB1C7B
:100320000C1D1D1DE482F5820683178383E0808304
:10033000248135814681578157FF1AC0C901AA27F8
:1003400097FDA095BA2F81709070A070B0705695EF
:10035000479537952795822B932BA42BB52B848318
:100360009583A683B7838281938101969383828349
:10037000DF0101C0D201CD01CDB7DEB7E2E10C94BF
:10038000B411A0E2B0E0E7ECF1E00C94A4116983B1
:100390007A838B839C832D833E834F835887E9E048
:1003A000EE2EF12CEC0EFD1ECE010196B7010E943F
:1003B0007F058E010F5E1F4FCE010596B8010E948A
:1003C0007F058A8991E089278A8BC701B801AE0130
:1003D000475E5F4F0E9475000E94AA04A096E6E067
:1003E0000C94C011A0E2B0E0E8EFF1E00C94A4118D
:1003F00069837A838B839C832D833E834F835887C5
:10040000F9E0EF2EF12CEC0EFD1ECE010196B701A6
:100410000E947F058E010F5E1F4FCE010596B80129
:100420000E947F05C701B801AE01475E5F4F0E9481
:1004300075000E94AA04A096E6E00C94C011A0E208
:10044000B0E0E5E2F2E00C94981169837A838B8343
:100450009C832D833E834F835887CE010196BE0136
:10046000675F7F4F0E947F05CE010596BE016F5EDC
:100470007F4F0E947F059985923088F0898982306C
:10048000C8F0943019F4823051F404C0843029F457
:10049000923081F487E890E0C6C0923049F420E0C1
:1004A0009A858A89981321E02A87CE010996BBC0D4
:1004B000823049F420E09A858A89981321E02A8BBA
:1004C000CE014196B0C02D843E844F8458886D88FB
:1004D0007E888F88988CEE24FF248701AA24BB2471
:1004E000650140E050E060E070E0E0E0F0E0C10174
:1004F00081709070892BE9F0E60CF71C081D191D1E
:100500009A01AB012A0D3B1D4C1D5D1D80E090E062
:10051000A0E0B0E0E614F7040805190520F481E036
:1005200090E0A0E0B0E0BA01A901480F591F6A1F8E
:100530007B1FAA0CBB1CCC1CDD1C97FE08C081E0F5
:1005400090E0A0E0B0E0A82AB92ACA2ADB2A3196B6
:10055000E032F10549F0660C771C881C991C569412
:10056000479437942794C3CFFA85EA892B893C892D
:100570008B859C85280F391F2E5F3F4F17C0CA01FE
:1005800081709070892B61F016950795F794E79428
:1005900080E090E0A0E0B0E8E82AF92A0A2B1B2BC3
:1005A00076956795579547952F5F3F4F77FDE7CF36
:1005B0000CC0440F551F661F771F17FD4160EE0CDE
:1005C000FF1C001F111F21503040403090E05907A0
:1005D00090E0690790E4790760F32B8F3C8FDB0193
:1005E000CA018F779070A070B07080349105A1051A
:1005F000B10561F447FD0AC0E114F10401051105DC
:1006000029F0405C5F4F6F4F7F4F40781A8EFE1786
:1006100011F081E08A8F4D8F5E8F6F8F78A383E01A
:10062000898FCE0149960E94AA04A096E2E10C941B
:10063000B411A8E1B0E0EFE1F3E00C94A4116983F8
:100640007A838B839C832D833E834F83588789E0F5
:10065000E82EF12CEC0EFD1ECE010196B7010E9492
:100660007F058E010F5E1F4FCE010596B8010E94D7
:100670007F058985823040F08989823028F0C70162
:10068000B8010E94F70501C08FEF6896E6E00C9470
:10069000C011A8E1B0E0EFE4F3E00C94A411698389
:1006A0007A838B839C832D833E834F83588789E095
:1006B000E82EF12CEC0EFD1ECE010196B7010E9432
:1006C0007F058E010F5E1F4FCE010596B8010E9477
:1006D0007F058985823040F08989823028F0C70102
:1006E000B8010E94F70501C08FEF6896E6E00C9410
:1006F000C011A8E1B0E0EFE7F3E00C94A411698326
:100700007A838B839C832D833E834F83588789E034
:10071000E82EF12CEC0EFD1ECE010196B7010E94D1
:100720007F058E010F5E1F4FCE010596B8010E9416
:100730007F058985823040F08989823028F0C701A1
:10074000B8010E94F70501C081E06896E6E00C94CC
:10075000C011A8E0B0E0EFEAF3E00C94A1119B0116
:10076000AC0183E08983DA01C9018827B7FD83954D
:100770009927AA27BB27B82E211531054105510518
:1007800019F482E089833AC08823A9F0203080E000
:10079000380780E0480780E8580729F460E070E0F7
:1007A00080E09FEC30C0EE24FF248701E21AF30AB8
:1007B000040B150B02C079018A018EE1C82ED12CE1
:1007C000DC82CB82ED82FE820F831887C801B701DD
:1007D0000E945B0401971816190684F4082E04C0C1
:1007E000EE0CFF1C001F111F0A94D2F7ED82FE824F
:1007F0000F831887C81AD90ADC82CB82BA82CE014D
:1008000001960E94AA042896E9E00C94BD11ACE080
:10081000B0E0EDE0F4E00C94A81169837A838B8357
:100820009C83CE010196BE016B5F7F4F0E947F05C6
:100830008D81823061F1823050F1843021F48E81DB
:10084000882351F12EC02F81388537FD20C06E815D
:100850002F3131051CF06623F9F023C08EE190E0C2
:10086000821B930B29853A854B855C8504C0569580
:100870004795379527958A95D2F76623B1F050951D
:100880004095309521953F4F4F4F5F4F0EC020E070
:1008900030E040E050E009C02FEF3FEF4FEF5FE75F
:1008A00004C020E030E040E050E8B901CA012C96D5
:1008B000E2E00C94C411EF92FF920F931F937B011F
:1008C0008C0180E0E81680E0F80681E0080780E00F
:1008D000180788F48FEFE816F1040105110531F0CF
:1008E00028F088E090E0A0E0B0E017C080E090E061
:1008F000A0E0B0E012C080E0E81680E0F80680E0FA
:10090000080781E0180728F088E190E0A0E0B0E057
:1009100004C080E190E0A0E0B0E020E230E040E000
:1009200050E0281B390B4A0B5B0B04C0169507954A
:10093000F794E7948A95D2F7F701E157FF4F80814A
:10094000281B310941095109C9011F910F91FF90DD
:10095000EF900895DF92EF92FF920F931F93FC01A7
:10096000E480F58006811781D1808081823048F44F
:1009700080E090E0A0E1B0E0E82AF92A0A2B1B2BE6
:10098000A5C0843009F49FC0823021F4EE24FF24F6
:10099000870105C0E114F1040105110519F4E0E037
:1009A000F0E096C0628173819FEF623879070CF0A6
:1009B0005BC022E83FEF261B370B2A3131052CF0B4
:1009C00020E030E040E050E02AC0B801A701022E4C
:1009D00004C076956795579547950A94D2F781E0BC
:1009E00090E0A0E0B0E004C0880F991FAA1FBB1FD1
:1009F0002A95D2F70197A109B1098E219F21A02341
:100A0000B1230097A105B10521F081E090E0A0E0BD
:100A1000B0E09A01AB01282B392B4A2B5B2BDA0172
:100A2000C9018F779070A070B07080349105A105D6
:100A3000B10539F427FF09C0205C3F4F4F4F5F4F8E
:100A400004C0215C3F4F4F4F5F4FE0E0F0E02030AB
:100A5000A0E03A07A0E04A07A0E45A0710F0E1E05E
:100A6000F0E079018A0127C06038710564F5FB0167
:100A7000E158FF4FD801C7018F779070A070B07018
:100A800080349105A105B10539F4E7FE0DC080E47D
:100A900090E0A0E0B0E004C08FE390E0A0E0B0E020
:100AA000E80EF91E0A1F1B1F17FF05C016950795B4
:100AB000F794E794319687E016950795F794E794B5
:100AC0008A95D1F705C0EE24FF248701EFEFF0E00F
:100AD0006E2F679566276795902F9F77D794DD24B3
:100AE000D7948E2F8695492F462B582F5D29B70115
:100AF000CA011F910F91FF90EF90DF900895FC01C4
:100B0000DB01408151812281622F6F7770E0221FCB
:100B10002227221F9381892F880F822B282F30E0D4
:100B2000991F9927991F11969C93119721153105AB
:100B3000A9F5411551056105710511F482E037C031
:100B400082E89FEF13969C938E9312979A01AB01C4
:100B500067E0220F331F441F551F6A95D1F783E0CA
:100B60008C930DC0220F331F441F551F12968D9179
:100B70009C911397019713969C938E931297203014
:100B800080E0380780E0480780E4580758F314965F
:100B90002D933D934D935C93179708952F3F310507
:100BA00079F4411551056105710519F484E08C93C0
:100BB000089564FF03C081E08C9312C01C9210C0A2
:100BC0002F57304013963C932E93129783E08C93CB
:100BD00087E0440F551F661F771F8A95D1F7706411
:100BE00014964D935D936D937C93179708951F937F
:100BF000DC01FB019C91923008F447C08081823077
:100C000008F443C0943051F411961C91843099F546
:100C10008181682F70E0611B71093FC0843021F031
:100C2000923031F48230B9F18181882389F12DC06D
:100C300011961C9111978230F1F081811817D9F427
:100C400012962D913C91139782819381821793077D
:100C500094F028173907BCF014968D919D910D9052
:100C6000BC91A02D248135814681578128173907F1
:100C70004A075B0718F4112341F00AC08217930753
:100C8000A407B50740F4112319F061E070E005C036
:100C90006FEF7FEF02C060E070E0CB011F9108951D
:100CA000DF93CF93CDB7DEB7A7E3B0E0E7E3F0E0A3
:100CB000808187608C93ABE3B0E0EBE3F0E0808170
:100CC0008C9382E00E94700688E20E9470068FE09A
:100CD0000E94700681E00E947006CF91DF91089516
:100CE0000F931F93DF93CF93CDB7DEB7C356D0409A
:100CF0000FB6F894DEBF0FBECDBFFE01ED59FF4F1A
:100D00008083A8E3B0E0E8E3F0E080818E7F8C93FD
:100D1000A8E3B0E0E8E3F0E080818D7F8C93FE01F2
:100D2000E15AFF4F80E090E0A0E8BFE38083918329
:100D3000A283B3838E01055A1F4FFE01E15AFF4F74
:100D4000608171818281938120E030E04AE753E441
:100D50000E941F02DC01CB01F80180839183A283F2
:100D6000B383FE01E55AFF4F6081718182819381D7
:100D700020E030E040E85FE30E947903882344F4F8
:100D8000FE01E75AFF4F81E090E09183808364C0C9
:100D9000FE01E55AFF4F608171818281938120E0DD
:100DA0003FEF4FE757E40E94190318160CF043C0B9
:100DB000FE01E15AFF4F608171818281938120E0C1
:100DC00030E040E251E40E941F02DC01CB018E01C1
:100DD000075A1F4FBC01CD010E944900DC01CB0125
:100DE000F801918380831FC0FE01E95AFF4F89E11A
:100DF00090E091838083FE01E95AFF4F80819181C9
:100E00000197F1F7FE01E95AFF4F91838083DE01DC
:100E1000A75ABF4FFE01E75AFF4F8081918101978A
:100E200011969C938E93FE01E75AFF4F808191812A
:100E30000097D1F627C08E01075A1F4FFE01E55AD1
:100E4000FF4F60817181828193810E944900DC01A2
:100E5000CB01F80191838083DE01AB5ABF4FFE01C5
:100E6000E75AFF4F808191818D939C93FE01EB5A4D
:100E7000FF4F808191810197F1F7FE01EB5AFF4FFF
:100E800091838083A8E3B0E0E8E3F0E080818460B0
:100E90008C93FE01EF5AFF4F80E090E0A0E8BFE3A3
:100EA00080839183A283B3838E01035B1F4FFE0176
:100EB000EF5AFF4F608171818281938120E030E0A1
:100EC0004AE753E40E941F02DC01CB01F801808352
:100ED0009183A283B383FE01E35BFF4F6081718145
:100EE0008281938120E030E040E85FE30E94790353
:100EF000882344F4FE01E55BFF4F81E090E091839D
:100F0000808364C0FE01E35BFF4F60817181828159
:100F1000938120E03FEF4FE757E40E941903181632
:100F20000CF043C0FE01EF5AFF4F60817181828156
:100F3000938120E030E040E251E40E941F02DC0196
:100F4000CB018E01055B1F4FBC01CD010E94490002
:100F5000DC01CB01F801918380831FC0FE01E75BB8
:100F6000FF4F89E190E091838083FE01E75BFF4FB3
:100F7000808191810197F1F7FE01E75BFF4F91833B
:100F80008083DE01A55BBF4FFE01E55BFF4F8081E3
:100F90009181019711969C938E93FE01E55BFF4F23
:100FA000808191810097D1F627C08E01055B1F4F8C
:100FB000FE01E35BFF4F60817181828193810E941A
:100FC0004900DC01CB01F80191838083DE01A95B3C
:100FD000BF4FFE01E55BFF4F808191818D939C9314
:100FE000FE01E95BFF4F808191810197F1F7FE01DE
:100FF000E95BFF4F91838083ABE3B0E0EBE3F0E08C
:101000008081982F907FFE01ED59FF4F808182955E
:101010008F70892B8C93FE01ED5BFF4F80E090E099
:10102000A0E8BFE380839183A283B3838E01015C38
:101030001F4FFE01ED5BFF4F6081718182819381C3
:1010400020E030E04AE753E40E941F02DC01CB01BC
:10105000F80180839183A283B383FE01FF966081B0
:1010600071818281938120E030E040E85FE30E945B
:10107000790388232CF481E090E09EAF8DAF46C0C9
:10108000FE01FF96608171818281938120E03FEFB4
:101090004FE757E40E941903181664F5FE01ED5B53
:1010A000FF4F608171818281938120E030E040E2D6
:1010B00051E40E941F02DC01CB01BC01CD010E9462
:1010C0004900DC01CB019EAF8DAF0FC089E190E0FC
:1010D0009CAF8BAF8BAD9CAD0197F1F79CAF8BAF05
:1010E0008DAD9EAD01979EAF8DAF8DAD9EAD00973E
:1010F00069F716C0FE01FF9660817181828193813C
:101100000E944900DC01CB019EAF8DAF8DAD9EAD3D
:101110009AAF89AF89AD9AAD0197F1F79AAF89AFD0
:10112000A8E3B0E0E8E3F0E080818B7F8C9380E07F
:1011300090E0A0E8BFE38DAB9EABAFABB8AF6DA9BD
:101140007EA98FA998AD20E030E04AE753E40E94E1
:101150001F02DC01CB0189AB9AABABABBCAB69A97D
:101160007AA98BA99CA920E030E040E85FE30E94C7
:10117000790388232CF481E090E098AB8FA73FC0DF
:1011800069A97AA98BA99CA920E03FEF4FE757E412
:101190000E94190318164CF56DA97EA98FA998AD68
:1011A00020E030E040E251E40E941F02DC01CB016C
:1011B000BC01CD010E944900DC01CB0198AB8FA797
:1011C0000FC089E190E09EA78DA78DA59EA50197F0
:1011D000F1F79EA78DA78FA598A9019798AB8FA728
:1011E0008FA598A9009769F714C069A97AA98BA956
:1011F0009CA90E944900DC01CB0198AB8FA78FA569
:1012000098A99CA78BA78BA59CA50197F1F79CA7F4
:101210008BA7A8E3B0E0E8E3F0E0808184608C93E2
:1012200080E090E0A0E8BFE38FA398A7A9A7BAA7A2
:101230006FA178A589A59AA520E030E04AE753E49C
:101240000E941F02DC01CB018BA39CA3ADA3BEA314
:101250006BA17CA18DA19EA120E030E040E85FE37E
:101260000E94790388232CF481E090E09AA389A35B
:101270003FC06BA17CA18DA19EA120E03FEF4FE775
:1012800057E40E94190318164CF56FA178A589A59B
:101290009AA520E030E040E251E40E941F02DC0108
:1012A000CB01BC01CD010E944900DC01CB019AA316
:1012B00089A30FC089E190E098A38F8F8F8D98A1AB
:1012C0000197F1F798A38F8F89A19AA101979AA30B
:1012D00089A389A19AA1009769F714C06BA17CA189
:1012E0008DA19EA10E944900DC01CB019AA389A394
:1012F00089A19AA19E8F8D8F8D8D9E8D0197F1F77B
:101300009E8F8D8FABE3B0E0EBE3F0E08081982F10
:10131000907FFE01ED59FF4F80818F70892B8C9358
:1013200080E090E0A0E8BFE3898F9A8FAB8FBC8FFD
:10133000698D7A8D8B8D9C8D20E030E04AE753E4F7
:101340000E941F02DC01CB018D8B9E8BAF8BB88F6F
:101350006D897E898F89988D20E030E040E85FE3D9
:101360000E94790388232CF481E090E09C8B8B8B86
:101370003FC06D897E898F89988D20E03FEF4FE7D0
:1013800057E40E94190318164CF5698D7A8D8B8DE0
:101390009C8D20E030E040E251E40E941F02DC011D
:1013A000CB01BC01CD010E944900DC01CB019C8B2B
:1013B0008B8B0FC089E190E09A8B898B89899A8900
:1013C0000197F1F79A8B898B8B899C8901979C8B6C
:1013D0008B8B8B899C89009769F714C06D897E89F6
:1013E0008F89988D0E944900DC01CB019C8B8B8BEF
:1013F0008B899C89988B8F878F8598890197F1F7C6
:10140000988B8F87A8E3B0E0E8E3F0E080818B7FE2
:101410008C9380E090E0A0E8BFE38B879C87AD874A
:10142000BE876B857C858D859E8520E030E04AE710
:1014300053E40E941F02DC01CB018F839887A987A8
:10144000BA876F81788589859A8520E030E040E809
:101450005FE30E94790388232CF481E090E09E836F
:101460008D833FC06F81788589859A8520E03FEF25
:101470004FE757E40E94190318164CF56B857C85DD
:101480008D859E8520E030E040E251E40E941F02FD
:10149000DC01CB01BC01CD010E944900DC01CB0184
:1014A0009E838D830FC089E190E09C838B838B8129
:1014B0009C810197F1F79C838B838D819E8101979D
:1014C0009E838D838D819E81009769F714C06F8103
:1014D000788589859A850E944900DC01CB019E832D
:1014E0008D838D819E819A83898389819A810197D9
:1014F000F1F79A838983CD59DF4F0FB6F894DEBF99
:101500000FBECDBFCF91DF911F910F9108950F9323
:101510001F93DF93CF93CDB7DEB7C356D0400FB63E
:10152000F894DEBF0FBECDBFFE01ED59FF4F8083A3
:10153000A8E3B0E0E8E3F0E0808181608C93A8E369
:10154000B0E0E8E3F0E080818D7F8C93FE01E15A0A
:10155000FF4F80E090E0A0E8BFE380839183A28307
:10156000B3838E01055A1F4FFE01E15AFF4F608180
:1015700071818281938120E030E04AE753E40E9448
:101580001F02DC01CB01F80180839183A283B38326
:10159000FE01E55AFF4F608171818281938120E0D5
:1015A00030E040E85FE30E947903882344F4FE01C1
:1015B000E75AFF4F81E090E09183808364C0FE0191
:1015C000E55AFF4F608171818281938120E03FEF76
:1015D0004FE757E40E94190318160CF043C0FE01B0
:1015E000E15AFF4F608171818281938120E030E078
:1015F00040E251E40E941F02DC01CB018E01075A38
:101600001F4FBC01CD010E944900DC01CB01F80154
:10161000918380831FC0FE01E95AFF4F89E190E06A
:1016200091838083FE01E95AFF4F80819181019768
:10163000F1F7FE01E95AFF4F91838083DE01A75A3B
:10164000BF4FFE01E75AFF4F8081918101971196AC
:101650009C938E93FE01E75AFF4F80819181009702
:10166000D1F627C08E01075A1F4FFE01E55AFF4FE2
:1016700060817181828193810E944900DC01CB01EC
:10168000F80191838083DE01AB5ABF4FFE01E75A18
:10169000FF4F808191818D939C93FE01EB5AFF4F08
:1016A000808191810197F1F7FE01EB5AFF4F918301
:1016B0008083A8E3B0E0E8E3F0E0808184608C936D
:1016C000FE01EF5AFF4F80E090E0A0E8BFE3808387
:1016D0009183A283B3838E01035B1F4FFE01EF5AF8
:1016E000FF4F608171818281938120E030E04AE781
:1016F00053E40E941F02DC01CB01F8018083918337
:10170000A283B383FE01E35BFF4F6081718182811D
:10171000938120E030E040E85FE30E947903882372
:1017200044F4FE01E55BFF4F81E090E0918380830C
:1017300064C0FE01E35BFF4F608171818281938110
:1017400020E03FEF4FE757E40E94190318160CF012
:1017500043C0FE01EF5AFF4F608171818281938106
:1017600020E030E040E251E40E941F02DC01CB01A6
:101770008E01055B1F4FBC01CD010E944900DC01B9
:10178000CB01F801918380831FC0FE01E75BFF4F0F
:1017900089E190E091838083FE01E75BFF4F8081C8
:1017A00091810197F1F7FE01E75BFF4F9183808301
:1017B000DE01A55BBF4FFE01E55BFF4F808191819C
:1017C000019711969C938E93FE01E55BFF4F8081FC
:1017D00091810097D1F627C08E01055B1F4FFE0156
:1017E000E35BFF4F60817181828193810E94490098
:1017F000DC01CB01F80191838083DE01A95BBF4F3F
:10180000FE01E55BFF4F808191818D939C93FE01EA
:10181000E95BFF4F808191810197F1F7FE01E95B60
:10182000FF4F91838083ABE3B0E0EBE3F0E0808196
:10183000982F907FFE01ED59FF4F808182958F7028
:10184000892B8C93FE01ED5BFF4F80E090E0A0E8D8
:10185000BFE380839183A283B3838E01015C1F4F1A
:10186000FE01ED5BFF4F608171818281938120E0F9
:1018700030E04AE753E40E941F02DC01CB01F8018B
:1018800080839183A283B383FE01FF96608171817F
:101890008281938120E030E040E85FE30E94790399
:1018A00088232CF481E090E09EAF8DAF46C0FE010E
:1018B000FF96608171818281938120E03FEF4FE745
:1018C00057E40E941903181664F5FE01ED5BFF4F03
:1018D000608171818281938120E030E040E251E4B7
:1018E0000E941F02DC01CB01BC01CD010E94490016
:1018F000DC01CB019EAF8DAF0FC089E190E09CAFC2
:101900008BAF8BAD9CAD0197F1F79CAF8BAF8DADDD
:101910009EAD01979EAF8DAF8DAD9EAD009769F7DF
:1019200016C0FE01FF9660817181828193810E94C1
:101930004900DC01CB019EAF8DAF8DAD9EAD9AAF5E
:1019400089AF89AD9AAD0197F1F79AAF89AFA8E356
:10195000B0E0E8E3F0E080818B7F8C9380E090E062
:10196000A0E8BFE38DAB9EABAFABB8AF6DA97EA9CE
:101970008FA998AD20E030E04AE753E40E941F02AF
:10198000DC01CB0189AB9AABABABBCAB69A97AA943
:101990008BA99CA920E030E040E85FE30E94790336
:1019A00088232CF481E090E098AB8FA73FC069A911
:1019B0007AA98BA99CA920E03FEF4FE757E40E944A
:1019C000190318164CF56DA97EA98FA998AD20E0D2
:1019D00030E040E251E40E941F02DC01CB01BC0177
:1019E000CD010E944900DC01CB0198AB8FA70FC04D
:1019F00089E190E09EA78DA78DA59EA50197F1F79F
:101A00009EA78DA78FA598A9019798AB8FA78FA5A3
:101A100098A9009769F714C069A97AA98BA99CA90C
:101A20000E944900DC01CB0198AB8FA78FA598A934
:101A30009CA78BA78BA59CA50197F1F79CA78BA7CB
:101A4000A8E3B0E0E8E3F0E0808184608C9380E07C
:101A500090E0A0E8BFE38FA398A7A9A7BAA76FA1BA
:101A600078A589A59AA520E030E04AE753E40E94D2
:101A70001F02DC01CB018BA39CA3ADA3BEA36BA172
:101A80007CA18DA19EA120E030E040E85FE30E94B0
:101A9000790388232CF481E090E09AA389A33FC0C6
:101AA0006BA17CA18DA19EA120E03FEF4FE757E401
:101AB0000E94190318164CF56FA178A589A59AA55F
:101AC00020E030E040E251E40E941F02DC01CB0143
:101AD000BC01CD010E944900DC01CB019AA389A37E
:101AE0000FC089E190E098A38F8F8F8D98A1019707
:101AF000F1F798A38F8F89A19AA101979AA389A33F
:101B000089A19AA1009769F714C06BA17CA18DA14E
:101B10009EA10E944900DC01CB019AA389A389A15F
:101B20009AA19E8F8D8F8D8D9E8D0197F1F79E8F3F
:101B30008D8FABE3B0E0EBE3F0E08081982F907FF6
:101B4000FE01ED59FF4F80818F70892B8C9380E0CF
:101B500090E0A0E8BFE3898F9A8FAB8FBC8F698D2F
:101B60007A8D8B8D9C8D20E030E04AE753E40E9413
:101B70001F02DC01CB018D8B9E8BAF8BB88F6D89E3
:101B80007E898F89988D20E030E040E85FE30E94F5
:101B9000790388232CF481E090E09C8B8B8B3FC0F1
:101BA0006D897E898F89988D20E03FEF4FE757E45C
:101BB0000E94190318164CF5698D7A8D8B8D9C8DBA
:101BC00020E030E040E251E40E941F02DC01CB0142
:101BD000BC01CD010E944900DC01CB019C8B8B8BA9
:101BE0000FC089E190E09A8B898B89899A89019746
:101BF000F1F79A8B898B8B899C8901979C8B8B8BB6
:101C00008B899C89009769F714C06D897E898F89BB
:101C1000988D0E944900DC01CB019C8B8B8B8B89BA
:101C20009C89988B8F878F8598890197F1F7988B7E
:101C30008F87A8E3B0E0E8E3F0E080818B7F8C93AE
:101C400080E090E0A0E8BFE38B879C87AD87BE87EC
:101C50006B857C858D859E8520E030E04AE753E4E6
:101C60000E941F02DC01CB018F839887A987BA8766
:101C70006F81788589859A8520E030E040E85FE3D0
:101C80000E94790388232CF481E090E09E838D8369
:101C90003FC06F81788589859A8520E03FEF4FE7C7
:101CA00057E40E94190318164CF56B857C858D85C9
:101CB0009E8520E030E040E251E40E941F02DC01FA
:101CC000CB01BC01CD010E944900DC01CB019E8308
:101CD0008D830FC089E190E09C838B838B819C81F5
:101CE0000197F1F79C838B838D819E8101979E8361
:101CF0008D838D819E81009769F714C06F817885EF
:101D000089859A850E944900DC01CB019E838D83E1
:101D10008D819E819A83898389819A810197F1F7C8
:101D20009A838983CD59DF4F0FB6F894DEBF0FBE7B
:101D3000CDBFCF91DF911F910F910895DF93CF9386
:101D400000D00F92CDB7DEB79B838A8319820EC075
:101D50008981282F30E08A819B81FC01E20FF31FEB
:101D600080810E94870A89818F5F89838981282FDA
:101D700030E08A819B81FC01E20FF31F8081882380
:101D800039F70F900F900F90CF91DF910895DF9367
:101D9000CF9300D000D00F92CDB7DEB78A836B838C
:101DA0008A81282F30E03D832C838C819D81813076
:101DB0009105C1F02C813D81223031052CF48C81BC
:101DC0009D81009761F019C02C813D812230310541
:101DD00069F08C819D818330910561F00EC08B810B
:101DE00089830BC08B81805C898307C08B81805F76
:101DF000898303C08B81805B8983898180680E948D
:101E000070060F900F900F900F900F90CF91DF9171
:101E10000895DF93CF9300D000D0CDB7DEB789838C
:101E20006A835C834B8389816A810E94C70E8B81A0
:101E30009C810E949E0E0F900F900F900F90CF915B
:101E4000DF910895DF93CF93CDB7DEB762970FB6DA
:101E5000F894DEBF0FBECDBF9A8B898B89899A8992
:101E60009E012F5F3F4FB9014AE050E00E94CF1121
:101E7000CE0101960E949E0E62960FB6F894DEBFC8
:101E80000FBECDBFCF91DF910895DF93CF93CDB734
:101E9000DEB76C970FB6F894DEBF0FBECDBF698F6B
:101EA0007A8F8B8F9C8F698D7A8D8B8D9C8D0E9404
:101EB0000704DC01CB018D839E83AF83B8876D81DE
:101EC0007E818F8198850E94A9039B01AC01698D59
:101ED0007A8D8B8D9C8D0E94C101DC01CB01BC01F0
:101EE000CD0120E030E048EC52E40E941F02DC010A
:101EF000CB01BC01CD010E940704DC01CB01898329
:101F00009A83AB83BC838DB79EB70C970FB6F894BA
:101F10009EBF0FBE8DBFEDB7FEB73196CE010996BD
:101F20009183808380E690E0938382838D819E817C
:101F3000AF81B88584839583A683B78389819A818D
:101F4000AB81BC8180879187A287B3870E94F01103
:101F50008DB79EB70C960FB6F8949EBF0FBE8DBF7F
:101F6000CE0109960E949E0E6C960FB6F894DEBFC5
:101F70000FBECDBFCF91DF910895DF93CF93CDB743
:101F8000DEB781E00E947006CF91DF910895DF9364
:101F9000CF93CDB7DEB7A3E5B0E0E3E5F0E0808115
:101FA00081608C93E2E5F0E01082A9E5B0E0E9E51C
:101FB000F0E0808181608C937894CF91DF910895D7
:101FC000DF93CF9300D000D0CDB7DEB79C838B8357
:101FD0008B819C81CC01A0E0B0E028EE33E040E0B2
:101FE00050E0BC01CD010E945211DC01CB01892FD0
:101FF0009A2FAB2FBB279A8389831092A00110924E
:102000009F0120919F013091A00189819A81281719
:102010003907B8F30F900F900F900F90CF91DF9189
:1020200008951F920F920FB60F9211248F939F93D2
:10203000DF93CF93CDB7DEB780919F019091A00140
:1020400001969093A00180939F01CF91DF919F9182
:102050008F910F900FBE0F901F901895DF93CF9325
:10206000CDB7DEB7A1E3B0E0E1E3F0E08081837FAC
:102070008C93A2E3B0E0E2E3F0E080818C608C938B
:10208000ABE5B0E0EBE5F0E08081806C8C93A5E5FA
:10209000B0E0E5E5F0E0808182608C93A5E5B0E0FA
:1020A000E5E5F0E0808188608C93CF91DF91089521
:1020B0001F920F920FB60F9211248F93DF93CF933D
:1020C0000F92CDB7DEB780918F011982813011F068
:1020D00081E08983898180938F010F90CF91DF9177
:1020E0008F910F900FBE0F901F9018951F920F9217
:1020F0000FB60F9211248F93DF93CF930F92CDB72A
:10210000DEB780919E011982882311F481E08983D2
:10211000898180939E010F90CF91DF918F910F90D5
:102120000FBE0F901F901895DF93CF9300D000D073
:1021300000D0CDB7DEB789836A8390919D018981F4
:10214000891729F490919C018A818917C1F10E9415
:10215000BD0F80E060E00E94C70E8AE690E00E941A
:102160009E0E8981813029F48FE690E09E838D83D5
:1021700004C083E790E09E838D838D819E810E94C1
:102180009E0E81E060E00E94C70E87E790E00E940B
:102190009E0E8A81882329F48DE790E09C838B83AF
:1021A00004C082E890E09C838B838B819C810E9499
:1021B0009E0E898180939D018A8180939C01269641
:1021C0000FB6F894DEBF0FBECDBFCF91DF9108955B
:1021D000DF93CF93CDB7DEB728970FB6F894DEBF65
:1021E0000FBECDBFE4E3F0E08FEF80830E94500686
:1021F0000E942E100E94C70F1C8280919E0188238E
:1022000029F480E991E098878F8304C084E991E004
:1022100098878F838F8198859B838A8380919E0185
:10222000882319F494E09E8302C088E08E839E8107
:102230009983A5E3B0E08C81282F30E08A819B81CF
:10224000FC01E20FF31F80818C9380918F0181301C
:1022500079F48C81882F90E0AC014F5F5F4F8981CA
:10226000282F30E0CA01B9010E9471118C830EC081
:102270008C81882329F48981982F91509D8304C0F3
:102280008C81982F91509D838D818C8380918F01BB
:1022900090919E01692F0E94941084EF91E00E941A
:1022A000E00FABCF629FD001739FF001829FE00DE2
:1022B000F11D649FE00DF11D929FF00D839FF00DC5
:1022C000749FF00D659FF00D9927729FB00DE11D71
:1022D000F91F639FB00DE11DF91FBD01CF0111244E
:1022E000089597FB092E07260AD077FD04D00CD05D
:1022F00006D000201AF4709561957F4F0895F6F787
:10230000909581959F4F0895AA1BBB1B51E107C073
:10231000AA1FBB1FA617B70710F0A61BB70B881F75
:10232000991F5A95A9F780959095BC01CD01089504
:102330002F923F924F925F926F927F928F929F92D5
:10234000AF92BF92CF92DF92EF92FF920F931F93C3
:10235000CF93DF93CDB7DEB7CA1BDB0B0FB6F89474
:10236000DEBF0FBECDBF09942A88398848885F84B4
:102370006E847D848C849B84AA84B984C884DF8025
:10238000EE80FD800C811B81AA81B981CE0FD11D09
:102390000FB6F894DEBF0FBECDBFED010895FB016F
:1023A0009F01E8944230C4F04532B4F44A3029F435
:1023B00097FB1EF4909581959F4F642F77270E947D
:1023C0008411805D8A330CF0895D8193CB01009785
:1023D000A1F716F45DE251931082C9010C94071421
:1023E000AEE0B0E0E6EFF1E10C94A6110D891E8994
:1023F00086E08C831A8309838FEF9FE79E838D830A
:102400009E01275E3F4FCE0101966F89788DA9010D
:102410000E9414122F813885020F131FF8011082B9
:102420002E96E4E00C94C211ABE0B0E0EAE1F2E1F8
:102430000C9498113C012B015A01FC011782168261
:10244000838181FD03C06FEF7FEFC6C19AE0892EC3
:102450001E010894211C311CF3012381F20123FD8C
:10246000859123FF81912F01882309F4B2C1853220
:1024700039F423FD859123FF81912F01853229F4C1
:1024800090E0B3010E941714E7CF982FFF24EE24A9
:102490009924FFE1FF15D0F09B3269F09C3228F4BB
:1024A000903259F0933291F40EC09D3249F090333E
:1024B00069F441E024C052E0F52A84E0F82A28C0FB
:1024C00098E0F92A25C0E0E1FE2A22C0F7FC29C0E5
:1024D000892F80538A3070F4F6FE05C0989C902CAA
:1024E0001124980E15C0E89CE02C1124E80EF0E2AF
:1024F000FF2A0EC09E3229F4F6FC6BC140E4F42A98
:1025000007C09C3619F450E8F52A02C0983649F401
:10251000F20123FD959123FF91912F01992309F059
:10252000B8CF892F8554833018F08052833038F427
:1025300044E050E0A40EB51E5FE359830FC093360C
:1025400031F0933779F0933509F056C020C0F5018A
:102550008081898342E050E0A40EB51E610101E054
:1025600010E012C0F501C080D180F6FC03C06FEF0F
:102570007FEF02C0692D70E042E050E0A40EB51E6E
:10258000C6010E94FC138C015FE7F52214C0F5011F
:10259000C080D180F6FC03C06FEF7FEF02C0692DD1
:1025A00070E042E050E0A40EB51EC6010E94F11397
:1025B0008C0150E8F52AF3FE07C01AC080E290E0D3
:1025C000B3010E941714EA948E2D90E008171907A2
:1025D000A8F30EC0F601F7FC8591F7FE81916F011B
:1025E00090E0B3010E941714E110EA9401501040EA
:1025F0000115110579F7EAC0943611F0993669F59D
:10260000F7FE08C0F501208131814281538184E0C9
:1026100090E00AC0F501808191819C01442737FD3B
:102620004095542F82E090E0A80EB91E9FE6F92253
:1026300057FF09C050954095309521953F4F4F4F1A
:102640005F4FE0E8FE2ACA01B901A1012AE030E0AB
:102650000E944314D82ED21840C0953729F41F2D5C
:102660001F7E2AE030E01DC01F2D197F9F3661F0CC
:10267000903720F4983509F0ACC00FC0903739F08E
:10268000983709F0A6C004C028E030E00AC0106105
:1026900014FD146020E130E004C014FD166020E158
:1026A00032E017FF08C0F50160817181828193815A
:1026B00044E050E008C0F50180819181BC0180E0D8
:1026C00090E042E050E0A40EB51EA1010E94431428
:1026D000D82ED2188FE7F82EF122F6FE0BC05EEF4F
:1026E000F522D91438F4F4FE07C0F2FC05C08FEED1
:1026F000F82202C01D2D01C0192DF4FE0DC0FE01EF
:10270000ED0DF11D8081803319F499EEF92208C096
:102710001F5FF2FE05C003C08F2D867809F01F5F92
:102720000F2DF3FC14C0F0FE0FC01E1510F09D2CF1
:102730000BC09D2C9E0C911A1E2D06C080E290E0CD
:10274000B3010E9417141F5F1E15C0F304C01E15AD
:1027500010F4E11A01C0EE2404FF0FC080E390E002
:10276000B3010E94171402FF1DC001FD03C088E7DA
:1027700090E00EC088E590E00BC0802F867891F045
:1027800001FF02C08BE201C080E2F7FC8DE290E025
:10279000B3010E94171406C080E390E0B3010E94C9
:1027A00017149A94D914C0F3DA94F101ED0DF11DC8
:1027B000808190E0B3010E941714DD20A9F706C0C4
:1027C00080E290E0B3010E941714EA94EE20C1F772
:1027D00043CEF30166817781CB012B96E2E10C9425
:1027E000B411FC010590615070400110D8F780953C
:1027F00090958E0F9F1F0895FC01615070400190CD
:102800000110D8F7809590958E0F9F1F0895DC01D9
:10281000FC01672F71917723E1F7329704C07C9117
:102820006D9370836291AE17BF07C8F308950F933D
:102830001F93CF93DF938C01EB018B8181FF1BC032
:1028400082FF0DC02E813F818C819D812817390721
:1028500064F4E881F9810193F983E88306C0E8858F
:10286000F985802F0995892B31F48E819F810196FE
:102870009F838E8302C00FEF1FEFC801DF91CF91BE
:102880001F910F910895FA01AA27283051F12031A4
:1028900081F1E8946F936E7F6E5F7F4F8F4F9F4FF4
:1028A000AF4FB1E03ED0B4E03CD0670F781F891F36
:1028B0009A1FA11D680F791F8A1F911DA11D6A0F04
:1028C000711D811D911DA11D20D009F468943F91B7
:1028D0002AE0269F11243019305D3193DEF6CF01B6
:1028E0000895462F4770405D4193B3E00FD0C9F77C
:1028F000F6CF462F4F70405D4A3318F0495D31FDE9
:102900004052419302D0A9F7EACFB4E0A69597953B
:10291000879577956795BA95C9F700976105710511
:1029200008959B01AC010A2E06945795479537955B
:102930002795BA95C9F7620F731F841F951FA01DB5
:062940000895F894FFCF9A
:10294600256C642E2530326C64004469723A00436B
:10295600572000434357004D6F64653A0046756C37
:102966006C0048616C66000000000000000000007A
:10297600010202030303030404040404040404051B
:1029860005050505050505050505050505050506F0
:1029960006060606060606060606060606060606D1
:1029A60006060606060606060606060606060607C0
:1029B60007070707070707070707070707070707A1
:1029C6000707070707070707070707070707070791
:1029D6000707070707070707070707070707070781
:1029E6000707070707070707070707070707070870
:1029F6000808080808080808080808080808080851
:102A06000808080808080808080808080808080840
:102A16000808080808080808080808080808080830
:102A26000808080808080808080808080808080820
:102A36000808080808080808080808080808080810
:102A46000808080808080808080808080808080800
:102A560008080808080808080808080808080808F0
:102A660008080808080808080808080808080801E7
:0E2A76000C0603090C04060203010908FFFF09
:00000001FF
